{
  "_format": "hh-sol-artifact-1",
  "contractName": "Greeter",
  "sourceName": "contracts/Greeter.sol",
  "abi": [
    {
      "inputs": [
        {
          "internalType": "string",
          "name": "_greeting",
          "type": "string"
        }
      ],
      "stateMutability": "nonpayable",
      "type": "constructor"
    },
    {
      "anonymous": false,
      "inputs": [
        {
          "indexed": false,
          "internalType": "uint256",
          "name": "id",
          "type": "uint256"
        },
        {
          "indexed": false,
          "internalType": "string",
          "name": "newPrice",
          "type": "string"
        },
        {
          "indexed": false,
          "internalType": "address",
          "name": "walletAddress",
          "type": "address"
        }
      ],
      "name": "priceTemplateCreated",
      "type": "event"
    },
    {
      "inputs": [],
      "name": "count",
      "outputs": [
        {
          "internalType": "uint256",
          "name": "",
          "type": "uint256"
        }
      ],
      "stateMutability": "view",
      "type": "function"
    },
    {
      "inputs": [],
      "name": "getLatestPrice",
      "outputs": [
        {
          "internalType": "int256",
          "name": "",
          "type": "int256"
        }
      ],
      "stateMutability": "view",
      "type": "function"
    },
    {
      "inputs": [],
      "name": "greet",
      "outputs": [
        {
          "internalType": "string",
          "name": "",
          "type": "string"
        }
      ],
      "stateMutability": "view",
      "type": "function"
    },
    {
      "inputs": [
        {
          "internalType": "string",
          "name": "_newPrice",
          "type": "string"
        }
      ],
      "name": "newPrice",
      "outputs": [],
      "stateMutability": "nonpayable",
      "type": "function"
    },
    {
      "inputs": [
        {
          "internalType": "uint256",
          "name": "",
          "type": "uint256"
        }
      ],
      "name": "priceList",
      "outputs": [
        {
          "internalType": "uint256",
          "name": "id",
          "type": "uint256"
        },
        {
          "internalType": "string",
          "name": "newPrice",
          "type": "string"
        },
        {
          "internalType": "address",
          "name": "walletAddress",
          "type": "address"
        }
      ],
      "stateMutability": "view",
      "type": "function"
    },
    {
      "inputs": [
        {
          "internalType": "string",
          "name": "_greeting",
          "type": "string"
        }
      ],
      "name": "setGreeting",
      "outputs": [],
      "stateMutability": "nonpayable",
      "type": "function"
    }
  ],
  "bytecode": "0x608060405260006003553480156200001657600080fd5b50604051620012863803806200128683398181016040528101906200003c9190620002d2565b6200006c604051806060016040528060228152602001620012646022913982620000e160201b6200051a1760201c565b806000908051906020019062000084929190620001b0565b50735498bb86bc934c8d34fda08e81d444153d0d06ad600160006101000a81548173ffffffffffffffffffffffffffffffffffffffff021916908373ffffffffffffffffffffffffffffffffffffffff160217905550506200051f565b620001838282604051602401620000fa92919062000358565b6040516020818303038152906040527f4b5c4277000000000000000000000000000000000000000000000000000000007bffffffffffffffffffffffffffffffffffffffffffffffffffffffff19166020820180517bffffffffffffffffffffffffffffffffffffffffffffffffffffffff83818316178352505050506200018760201b60201c565b5050565b60008151905060006a636f6e736f6c652e6c6f679050602083016000808483855afa5050505050565b828054620001be9062000444565b90600052602060002090601f016020900481019282620001e257600085556200022e565b82601f10620001fd57805160ff19168380011785556200022e565b828001600101855582156200022e579182015b828111156200022d57825182559160200191906001019062000210565b5b5090506200023d919062000241565b5090565b5b808211156200025c57600081600090555060010162000242565b5090565b6000620002776200027184620003bc565b62000393565b9050828152602081018484840111156200029057600080fd5b6200029d8482856200040e565b509392505050565b600082601f830112620002b757600080fd5b8151620002c984826020860162000260565b91505092915050565b600060208284031215620002e557600080fd5b600082015167ffffffffffffffff8111156200030057600080fd5b6200030e84828501620002a5565b91505092915050565b60006200032482620003f2565b620003308185620003fd565b9350620003428185602086016200040e565b6200034d816200050e565b840191505092915050565b6000604082019050818103600083015262000374818562000317565b905081810360208301526200038a818462000317565b90509392505050565b60006200039f620003b2565b9050620003ad82826200047a565b919050565b6000604051905090565b600067ffffffffffffffff821115620003da57620003d9620004df565b5b620003e5826200050e565b9050602081019050919050565b600081519050919050565b600082825260208201905092915050565b60005b838110156200042e57808201518184015260208101905062000411565b838111156200043e576000848401525b50505050565b600060028204905060018216806200045d57607f821691505b60208210811415620004745762000473620004b0565b5b50919050565b62000485826200050e565b810181811067ffffffffffffffff82111715620004a757620004a6620004df565b5b80604052505050565b7f4e487b7100000000000000000000000000000000000000000000000000000000600052602260045260246000fd5b7f4e487b7100000000000000000000000000000000000000000000000000000000600052604160045260246000fd5b6000601f19601f8301169050919050565b610d35806200052f6000396000f3fe608060405234801561001057600080fd5b50600436106100625760003560e01c8063045585a41461006757806306661abd146100995780635704d3cc146100b75780638e15f473146100d3578063a4136862146100f1578063cfae32171461010d575b600080fd5b610081600480360381019061007c919061081e565b61012b565b604051610090939291906109ff565b60405180910390f35b6100a16101fd565b6040516100ae91906109e4565b60405180910390f35b6100d160048036038101906100cc91906107dd565b610203565b005b6100db610314565b6040516100e89190610924565b60405180910390f35b61010b600480360381019061010691906107dd565b6103c1565b005b610115610488565b604051610122919061093f565b60405180910390f35b600260205280600052604060002060009150905080600001549080600101805461015490610b4d565b80601f016020809104026020016040519081016040528092919081815260200182805461018090610b4d565b80156101cd5780601f106101a2576101008083540402835291602001916101cd565b820191906000526020600020905b8154815290600101906020018083116101b057829003601f168201915b5050505050908060020160009054906101000a900473ffffffffffffffffffffffffffffffffffffffff16905083565b60035481565b6003600081548092919061021690610bb0565b9190505550604051806060016040528060035481526020018281526020013373ffffffffffffffffffffffffffffffffffffffff1681525060026000600354815260200190815260200160002060008201518160000155602082015181600101908051906020019061028992919061067e565b5060408201518160020160006101000a81548173ffffffffffffffffffffffffffffffffffffffff021916908373ffffffffffffffffffffffffffffffffffffffff1602179055509050507f2ab1e83e723ccf79a7565ca30c97edc8607d3e6f3209b31624a6afe1aa2ab0176003548233604051610309939291906109ff565b60405180910390a150565b600080600160009054906101000a900473ffffffffffffffffffffffffffffffffffffffff1673ffffffffffffffffffffffffffffffffffffffff1663feaf968c6040518163ffffffff1660e01b815260040160a06040518083038186803b15801561037f57600080fd5b505afa158015610393573d6000803e3d6000fd5b505050506040513d601f19601f820116820180604052508101906103b79190610847565b5050509150505090565b61046e604051806060016040528060238152602001610cdd60239139600080546103ea90610b4d565b80601f016020809104026020016040519081016040528092919081815260200182805461041690610b4d565b80156104635780601f1061043857610100808354040283529160200191610463565b820191906000526020600020905b81548152906001019060200180831161044657829003601f168201915b5050505050836105b6565b806000908051906020019061048492919061067e565b5050565b60606000805461049790610b4d565b80601f01602080910402602001604051908101604052809291908181526020018280546104c390610b4d565b80156105105780601f106104e557610100808354040283529160200191610510565b820191906000526020600020905b8154815290600101906020018083116104f357829003601f168201915b5050505050905090565b6105b28282604051602401610530929190610961565b6040516020818303038152906040527f4b5c4277000000000000000000000000000000000000000000000000000000007bffffffffffffffffffffffffffffffffffffffffffffffffffffffff19166020820180517bffffffffffffffffffffffffffffffffffffffffffffffffffffffff8381831617835250505050610655565b5050565b6106508383836040516024016105ce93929190610998565b6040516020818303038152906040527f2ced7cef000000000000000000000000000000000000000000000000000000007bffffffffffffffffffffffffffffffffffffffffffffffffffffffff19166020820180517bffffffffffffffffffffffffffffffffffffffffffffffffffffffff8381831617835250505050610655565b505050565b60008151905060006a636f6e736f6c652e6c6f679050602083016000808483855afa5050505050565b82805461068a90610b4d565b90600052602060002090601f0160209004810192826106ac57600085556106f3565b82601f106106c557805160ff19168380011785556106f3565b828001600101855582156106f3579182015b828111156106f25782518255916020019190600101906106d7565b5b5090506107009190610704565b5090565b5b8082111561071d576000816000905550600101610705565b5090565b600061073461072f84610a62565b610a3d565b90508281526020810184848401111561074c57600080fd5b610757848285610b0b565b509392505050565b60008151905061076e81610c97565b92915050565b600082601f83011261078557600080fd5b8135610795848260208601610721565b91505092915050565b6000813590506107ad81610cae565b92915050565b6000815190506107c281610cae565b92915050565b6000815190506107d781610cc5565b92915050565b6000602082840312156107ef57600080fd5b600082013567ffffffffffffffff81111561080957600080fd5b61081584828501610774565b91505092915050565b60006020828403121561083057600080fd5b600061083e8482850161079e565b91505092915050565b600080600080600060a0868803121561085f57600080fd5b600061086d888289016107c8565b955050602061087e8882890161075f565b945050604061088f888289016107b3565b93505060606108a0888289016107b3565b92505060806108b1888289016107c8565b9150509295509295909350565b6108c781610aaf565b82525050565b6108d681610ac1565b82525050565b60006108e782610a93565b6108f18185610a9e565b9350610901818560208601610b1a565b61090a81610c86565b840191505092915050565b61091e81610aeb565b82525050565b600060208201905061093960008301846108cd565b92915050565b6000602082019050818103600083015261095981846108dc565b905092915050565b6000604082019050818103600083015261097b81856108dc565b9050818103602083015261098f81846108dc565b90509392505050565b600060608201905081810360008301526109b281866108dc565b905081810360208301526109c681856108dc565b905081810360408301526109da81846108dc565b9050949350505050565b60006020820190506109f96000830184610915565b92915050565b6000606082019050610a146000830186610915565b8181036020830152610a2681856108dc565b9050610a3560408301846108be565b949350505050565b6000610a47610a58565b9050610a538282610b7f565b919050565b6000604051905090565b600067ffffffffffffffff821115610a7d57610a7c610c57565b5b610a8682610c86565b9050602081019050919050565b600081519050919050565b600082825260208201905092915050565b6000610aba82610acb565b9050919050565b6000819050919050565b600073ffffffffffffffffffffffffffffffffffffffff82169050919050565b6000819050919050565b600069ffffffffffffffffffff82169050919050565b82818337600083830152505050565b60005b83811015610b38578082015181840152602081019050610b1d565b83811115610b47576000848401525b50505050565b60006002820490506001821680610b6557607f821691505b60208210811415610b7957610b78610c28565b5b50919050565b610b8882610c86565b810181811067ffffffffffffffff82111715610ba757610ba6610c57565b5b80604052505050565b6000610bbb82610aeb565b91507fffffffffffffffffffffffffffffffffffffffffffffffffffffffffffffffff821415610bee57610bed610bf9565b5b600182019050919050565b7f4e487b7100000000000000000000000000000000000000000000000000000000600052601160045260246000fd5b7f4e487b7100000000000000000000000000000000000000000000000000000000600052602260045260246000fd5b7f4e487b7100000000000000000000000000000000000000000000000000000000600052604160045260246000fd5b6000601f19601f8301169050919050565b610ca081610ac1565b8114610cab57600080fd5b50565b610cb781610aeb565b8114610cc257600080fd5b50565b610cce81610af5565b8114610cd957600080fd5b5056fe4368616e67696e67206772656574696e672066726f6d202725732720746f2027257327a264697066735822122005b77eb8148c32b03576155fc616f191177d5d0c9827bcf2a9c6c0ce979e37c764736f6c634300080400334465706c6f79696e67206120477265657465722077697468206772656574696e673a",
  "linkReferences": {},
  "deployedLinkReferences": {}
}